:1000000088C00020E1020000DD020000DD020000E7
:10001000DD020000DD020000DD0200000000000043
:10002000000000000000000000000000DD020000F1
:10003000DD02000000000000DD020000DD02000023
:10004000DD020000DD020000DD020000DD02000034
:10005000DD020000DD020000DD020000DD02000024
:10006000DD020000DD020000DD020000F50A0000F4
:10007000DD020000DD020000DD020000DD02000004
:10008000DD020000DD020000DD020000DD020000F4
:10009000DD020000DD020000DD020000DD020000E4
:1000A000DD020000DD020000DD020000DD020000D4
:1000B000DD020000E9090000FD090000DD0200008A
:1000C000DD020000DD020000DD020000DD020000B4
:1000D000DD020000DD020000DD020000DD020000A4
:1000E000DD020000DD020000000000000000000052
:1000F00000000000450A0000DD020000DD020000F3
:10010000DD020000DD020000DD020000DD02000073
:10011000DD020000DD020000DD020000DD02000063
:10012000DD020000DD020000DD020000DD02000053
:10013000DD020000DD020000DD020000DD02000043
:10014000DD020000DD020000DD020000DD02000033
:10015000DD020000DD0200000000000000000000E1
:10016000000000000000000000000000000000008F
:10017000000000000000000000000000000000007F
:10018000DD020000DD020000DD020000DD020000F3
:1001900000000000DD020000DD020000DD020000C2
:1001A000DD020000DD020000DD020000DD020000D3
:1001B000DD020000DD020000DD020000DD020000C3
:1001C000DD020000DD020000DD020000DD020000B3
:1001D000DD02000000000000000000000000000040
:1001E000000000000000000000000000DD02000030
:1001F000DD020000DD020000DD0200000000000062
:10020000000000000000000000000000DD0200000F
:10021000DD020000DD020000DD020000DD02000062
:10022000DD020000DD020000DD020000DD02000052
:10023000DD020000DD020000DD020000DD02000042
:1002400000000000DD020000DD020000DD02000011
:10025000DD020000DD020000DD020000DD02000022
:100260000000000010B5054C237833B9044B13B1DE
:100270000448AFF300800123237010BD000000206C
:1002800000000000800F00000C4B43B10C480D49EA
:1002900010B5AFF300800C48036823B910BD0A48BD
:1002A000036833B97047094B002BF7D0BDE8104005
:1002B0001847064B002BF5D0184700BF0000000080
:1002C000800F000004000020800F000000000000EC
:1002D00008B5014B984708BDF1040000FEE7000097
:1002E00008B51C4B1C4A9A4210D01C4B194A9A4222
:1002F0000CD2013B9B1A23F0030304331344164929
:1003000051F8040B42F8040B9A42F9D1144B154AE8
:100310009A420AD2013B9B1A23F00303043313448D
:10032000002142F8041B9342FBD10F4B0F4A22F0ED
:100330007F029A60D3F8882042F47002C3F88820C4
:10034000BFF34F8FBFF36F8F094B9847094B984707
:10035000FEE700BF00000020800F0000000000202A
:10036000840000200000002000ED00E000000000FC
:10037000D90D0000B50C000008B5054A936943F09B
:100380000203936103490448044B984708BD00BF2A
:1003900000080040002000414400002065050000E6
:1003A000024A136943F0400313617047000800409C
:1003B00008B5034B984703490348044B984708BDC9
:1003C000A10300000040004128000020C9050000F2
:1003D000084B4FF400525A600749996207499962E5
:1003E0005A6093F84D1041F0040183F84D105A61A2
:1003F000704700BF0080004100200240000002C0A2
:10040000164B93F8512002F0FB0283F8512093F829
:10041000512002F0FE0242F0010283F8512093F8CD
:10042000382002F00F0242F0300283F8382093F8AF
:10043000502002F0FB0283F8502093F8502002F085
:10044000FE0242F0010283F8502093F8382002F0B7
:10045000F00242F0030283F8382070470080004128
:10046000064B4022C3F8E0204322C3F88C20044A04
:10047000936943F480639361704700BF001C0040A0
:100480000008004008B5044B984704490448054B50
:100490009847054B984708BD6104000000400141A2
:1004A0004C000020E506000001040000024A5369E8
:1004B00043F48073536170470008004008B5064B51
:1004C0009847482205490120054B98470548064BA7
:1004D0000360064B984708BDAD040000200E0000E5
:1004E000410800004800002000200040490C0000A6
:1004F00008B50B4B98470B4B98470B4B98470B4A4B
:10050000536943F400735361094B98470246094904
:1005100009480A4B98470A4B98470A4B984708BD29
:10052000D108000079030000B1030000000800407A
:10053000F10A0000002400405800002005080000D7
:1005400085040000BD040000EFF31083036072B661
:10055000BFF35F8F7047BFF35F8F036883F310882B
:100560007047000038B50C46054658B1081C18BF46
:1005700001202B220449054B984721462846044B6D
:10058000984738BD0020F4E73C0E00004108000009
:100590000D09000010B5044B1C68044B9847014638
:1005A0002046034B984710BD1C000020A9080000FE
:1005B000C908000008B5436903B1984708BD08B5EC
:1005C000836903B1984708BD38B50D46044690B11C
:1005D000081C18BF012038220849094B98472946B2
:1005E0002046084B9847034618B9074A2260074A35
:1005F0006260184638BD0020EDE700BF580E0000CD
:100600004108000071090000B5050000BF050000A9
:100610002DE9F8430F469046044620B329B3101C39
:1006200018BF0120B6221249124B9847043C124DC4
:100630002046A8470028FBD0013F0026DFF8409065
:100640000D4D17F8011F2046C8472046A84700282F
:10065000FBD00136B6B2B045F3D82046074B9847D9
:100660003046BDE8F8830020DCE70020DAE700BF71
:10067000700E0000410800002B0C00003F0C000031
:100680001D0C00002DE9F8430F4690460446E0B1EA
:10069000E9B1101C18BF01209C220E490E4B98474F
:1006A000013F0026043C0D4DDFF834902046A8475A
:1006B0000028FBD02046C84707F8010F0136B6B224
:1006C000B045F3D83046BDE8F8830020E4E70020C9
:1006D000E2E700BF700E000041080000350C00008A
:1006E000230C000038B50D46044690B1081C18BF15
:1006F000012035220849094B984729462046084BD6
:100700009847034618B9074AA260074A626018462C
:1007100038BD0020EDE700BF700E0000410800006A
:10072000E90B00008506000011060000F8B58446BC
:1007300007682FB18D683C460026C2F1010E0BE020
:100740000E4B9847F8BD7344A0680344AB420AD2ED
:100750002368264653B11C4663689342F3D8A068C9
:1007600003449B1AF2E7A74204D034462046044BC8
:100770009847F8BD6046014B9847F8BD69080000EE
:10078000950800002DE9F0474469076901370761C2
:10079000037E13F0010F13D1037E13F0020F0FD16C
:1007A00054B36368FB1AA268934207D3064600F16C
:1007B0001408DFF84890DFF848A012E0BDE8F087A1
:1007C000037E43F002030376BDE8F0877569E368B2
:1007D0002046984785B12C466B68FB1AAA6893425D
:1007E0000AD34046C847237C012BEFD167603A46C5
:1007F00021464046D047E9E7BDE8F0879D08000064
:100800002D07000038B50D46044678B1081C18BF06
:1008100001203B220649074B984729462046064BB4
:10082000984700202061054B236038BD0020F0E789
:100830008C0E000041080000890A000085070000B6
:1008400000B900BE704703684BB18B4209D01B68EA
:100850001BB19942FBD10120704700207047002056
:10086000704701207047000038B504460D46064B1E
:10087000984780F0010039220449C0B2044B9847E0
:1008800023682B60256038BD47080000A40E0000D7
:100890004108000003680B600160704703680BB1FA
:1008A0001A68026018467047C0EB0010C30002339C
:1008B0000348A0FB03235B08642000FB03F07047A0
:1008C000ABAAAAAA000000000139FDD8704700BFFA
:1008D00008B5084A13889BB21380074B9847074B0B
:1008E0009847074B9847074B984740F6FF70064BD1
:1008F000984708BD00400041110A0000250A000089
:1009000039090000410A00001509000001600020BB
:100910007047000010F0010F08D0054A054B1A621D
:10092000194643F6FD724B681342FCD1704700BF75
:1009300001010100001C00400122014B5A71704767
:100940000008004008B503691A8A12F0010F05D0AB
:1009500001221A82036853B1984708BD1A8A92B2DD
:100960002AB140F25E221A82436803B1984708BD5B
:1009700038B50C46054650B31648814214BF0020D6
:1009800001204B221449154B98472C61238823F0F2
:10099000C0039B049B0C2380114B1D60114B4FF037
:1009A0000051C3F88010BFF34F8FBFF36F8F4FF02C
:1009B0008042C3F88020BFF34F8FBFF36F8FC3F81F
:1009C0008011C3F8802119601A60002038BD002012
:1009D000D7E700BF00400041C40E000041080000FE
:1009E0002000002000E100E008B5024B1868024B2F
:1009F000984708BD200000204509000008B5024BBB
:100A00001868024B984708BD2000002045090000E7
:100A1000034BDA6902F47C52DA6101221A747047DE
:100A200000140040044A054B9A611A46136913F0FA
:100A3000020FFBD0704700BF0626000300100040E5
:100A40007047000000B583B00D4B9B78DBB201937B
:100A5000019B13F0020F06D00A4B1B681BB1084A1A
:100A60005068984709E0019B13F0010F05D0054B32
:100A70005B6813B1024A5068984703B05DF804FB05
:100A8000000002417400002038B50C4605463022B3
:100A90001449003018BF0120134B9847EC60012324
:100AA000238048F2030223691342FCD1EB681A69E0
:100AB00012F0010FFBD148F280021A8048F20301C4
:100AC0001A690A42FCD1EA6820231362136913F001
:100AD000600FFBD1EB684FF480725A81034B1D60AD
:100AE000002038BDE40E0000410800002400002072
:100AF0000020704710B5084B1C68E3689B8913F40D
:100B0000807F07D023680BB120469847E3684FF4F5
:100B100080729A8110BD00BF2400002070B487B09D
:100B200006466C460C4D0FCD0FC495E8030084E8D3
:100B30000300009BB3420CD0324601205DF8203008
:100B4000934207D001300628F8D1002007B070BCCE
:100B500070470020C0B2F9E7FC0E000010B5044653
:100B60001D4B9847032808D040F2BA721B49002059
:100B70001B4B98476FF00C0010BDE36913F0010F99
:100B800019D1E36913F0030FFBD1236813F0020FAF
:100B90000BD0236823F002032360E36913F0030FF3
:100BA000FBD1E36913F0020FFBD111232360E3694A
:100BB00013F0030FFBD1E36913F0010FFBD1094BD5
:100BC0002360E36913F0030FFBD14FF4A06363606C
:100BD00020236362002010BD1D0B00002C0F0000BD
:100BE000410800001000200038B50C46054640F2D0
:100BF000A6620749003018BF0120064B98472046DF
:100C0000054B9847034600B92C60184638BD00BF15
:100C10002C0F0000410800005D0B00000368996282
:100C200070470368986AC0B270470368187EC0F3C3
:100C3000800070470368187EC0F380007047036827
:100C400004221A760020704710B5044630B30068BD
:100C5000003018BF012050221449154B98472368D3
:100C60009A6812F00E0FFBD11A78D20918D19A683F
:100C700012F00E0FFBD11A7812F0020F13D11A786E
:100C800002F0FB021A709A6812F00E0FFBD1226874
:100C9000537803F0F0035370002010BD0020DAE712
:100CA0006FF0100010BD6FF0100010BD480F000075
:100CB000410800003E4B9B6803B1FEE770B582B06F
:100CC00000223C4B1A709A68002AFCD13A4B1A69F0
:100CD0006FF341021A61DA6812F0040FFBD0364B51
:100CE0001A69C82161F317421A611A696FF3830206
:100CF0001A611A6942F002021A61DA6812F0010FF1
:100D0000FBD02D4BDA6812F0020FFBD12B4B1B7876
:100D100013F0010F04D1294B1B7813F0040F08D0F6
:100D20006426274D244C3046A847E36813F0020F91
:100D3000F9D1214B1A696FF341021A61DA6812F096
:100D4000040FFBD01C4B1A69012161F383021A6165
:100D50001A6942F002021A611A4B984744F20403DE
:100D60001D68A5F58043B3F5F82F07D9164B9847B2
:100D7000BFF35F8F62B6002002B070BD01A8134BB5
:100D80009847134B19681A6A1C6954400C40544028
:100D900001A8104B984714F4005FE7D14FF480434B
:100DA0001A6882F30888024A93602847DEE700BF8A
:100DB00000ED00E00020004000180040000C004062
:100DC00095050000D1030000D10200004905000094
:100DD000008000415705000070B50D4E0D4CA41B5E
:100DE000A4100025A54209D10B4E0C4C00F0B8F818
:100DF000A41BA4100025A54205D170BD56F82530CE
:100E000098470135EEE756F8253098470135F2E767
:100E10006C0F00006C0F00006C0F0000700F0000E2
:100E20002E2E2F68616C2F696E636C7564652F6858
:100E3000616C5F7764742E68000000002E2E2F68AE
:100E4000616C2F7372632F68616C5F6372635F7391
:100E5000796E632E630000002E2E2F68616C2F7355
:100E600072632F68616C5F666C6173682E6300004B
:100E70002E2E2F68616C2F7372632F68616C5F690F
:100E800032635F735F73796E632E63002E2E2F685B
:100E9000616C2F7372632F68616C5F74696D65722A
:100EA0002E6300002E2E2F68616C2F7574696C7391
:100EB0002F7372632F7574696C735F6C6973742E12
:100EC000630000002E2E2F68706C2F6E766D637499
:100ED000726C2F68706C5F6E766D6374726C2E63CB
:100EE000000000002E2E2F68706C2F7274632F6824
:100EF000706C5F7274632E6300000000003000406D
:100F00000034004000200141004001410000004346
:100F1000000400430000000000000000000000008A
:100F20000000000000000000000000002E2E2F68CE
:100F3000706C2F736572636F6D2F68706C5F736573
:100F400072636F6D2E6300002E2E2F68706C2F77EA
:100F500064742F68706C5F7764742E630000000007
:100F6000F8B500BFF8BC08BC9E4670478902000077
:100F7000F8B500BFF8BC08BC9E467047650200008B
:00000001FF
